:020000040800F2
:10000000501500209D010008B51A0008B71A000815
:10001000B91A0008BB1A0008BD1A00080000000049
:10002000000000000000000000000000BF1A0008EF
:10003000C11A000800000000C31A0008C71A00080F
:10004000B7010008B7010008B7010008B7010008B0
:10005000B7010008B7010008B7010008B7010008A0
:10006000B7010008B7010008B7010008B701000890
:10007000B7010008B7010008B7010008B701000880
:10008000B7010008B7010008B7010008B701000870
:10009000B7010008B7010008B7010008B701000860
:1000A000B7010008B7010008B7010008B701000850
:1000B000B7010008B7010008B7010008B701000840
:1000C000B7010008B7010008B7010008B701000830
:1000D000B7010008C7170008D9170008F117000872
:1000E000B7010008B7010008B7010008B701000810
:1000F000B7010008B7010008B7010008B701000800
:10010000B7010008B7010008B7010008B7010008EF
:100110000918000821180008B7010008B7010008F5
:10012000B7010008B7010008B7010008B7010008CF
:10013000B7010008B7010008B7010008B7010008BF
:10014000B7010008B7010008B701000841440008E2
:10015000B7010008B7010008B7010008351800080A
:10016000B7010008B7010008B7010008B70100088F
:10017000B7010008B7010008B7010008B70100087F
:10018000B7010008B7010008DFF80CD006F0F8FE50
:1001900000480047C5180008501500200648804751
:1001A00006480047FEE7FEE7FEE7FEE7FEE7FEE75C
:1001B000FEE7FEE7FEE7FEE7FD1B000889010008F9
:1001C0002849084328490860704730B50F23C27892
:1001D00001780125FAB1244A126801F1E02102F404
:1001E000E062C2F5E062C2F30722C2F10404D34028
:1001F0004278A24084781C401443220181F80024F4
:10020000007800F01F018D404009800000F1E020DF
:10021000C0F8005130BD01F01F0085404809800042
:1002200000F1E020C0F8805130BD104A1140014378
:100230000D48001F016070470B4A121D002911680C
:1002400001D0014300E08143116070474FF0E0218D
:100250000428086903D020F004000861704740F0CA
:100260000400FAE70000FA050CED00E080FFFF1F34
:10027000F848016841F001010160F64A00210832A6
:1002800011600268F44B1A400260031DF34A1A60C1
:10029000F04BF34A84331A60F04A103A1B1D1A607F
:1002A000026822F480220260EA480C300160181DC6
:1002B00001607047E7490022891C0A700870704786
:1002C00002460020510901290CD002290CD0E14935
:1002D0007431096802F01F02012393400B4200D0E1
:1002E00001207047DB49F4E7DA497031F1E718B5CE
:1002F00000204FF4A04400903120FFF7E1FF009967
:10030000491C0091A14201D00028F5D03120FFF70F
:10031000D7FF002800D0012018BDCE4A116821F077
:10032000F80141EAC00010607047CE49086070478C
:10033000C849002270310A700A70012802D00428CE
:1003400001D1052008707047C7490860704741EA2D
:1003500082115A0810B5C54B029C03EB02421143AF
:10036000014341EA0460BB49091D086010BDBD4955
:1003700008667047800140EA0170B6498431086020
:100380007047B84988667047800140EA0160B1490A
:1003900040EA0270883108607047B24908677047C8
:1003A000B049C8647047AB4B08331A68084322F061
:1003B000EC62104318607047A64B08331A68084374
:1003C00022F07842104318607047A24A0832116840
:1003D00021F003010143116070479E480830006816
:1003E00000F00C0070479B4A0832116821F0F001C0
:1003F000014311607047974A0832116821F4E051B7
:10040000014311607047934A0832116821F460413A
:1004100041EAC0001060704770B58E4B0833196810
:10042000934C11F00C0104D06610042903D0082964
:1004300003D004601BE0066019E0864A121D1168B3
:10044000C1F38055116801F03F0115B1B6FBF1F120
:1004500001E0B4FBF1F114681268C4F3881461433D
:10046000C2F30142521C5200B1FBF2F10160196863
:100470000F2202EA11117F4A545C0168E140416099
:100480001C68072505EA9424145D21FA04F48460AD
:100490001B6805EA5333D25CD140C16070BDC0F324
:1004A0000121032908D16B4B08331968724A21F4E2
:1004B000F81102400A431A60664970310A68C0F3B5
:1004C0000B0002430A60704767494439086070476F
:1004D00065494039086070476249C1F85C0170475E
:1004E0005C4A8C32116821F440110143116070475D
:1004F000584A8C32116821F4400101431160704761
:10050000544A8C321168401E21F01F0101431160D2
:100510007047504A8C3211686FF0FF0321F4F85194
:1005200003EB00200843106070474A4A8C32116880
:1005300021F440310143116070475049C1F8E00196
:100540007047444A30320029116801D0014300E06D
:100550008143116070473F4A34320029116801D04D
:10056000014300E08143116070473A4A3832002964
:10057000116801D0014300E0814311607047354AA2
:1005800040320029116801D0014300E0814311602D
:100590007047304A44320029116801D0014300E01D
:1005A0008143116070472B4A10320029116801D035
:1005B000014300E0814311607047264A143200294C
:1005C000116801D0014300E0814311607047214A66
:1005D00018320029116801D0014300E08143116005
:1005E00070471C4A20320029116801D0014300E005
:1005F000814311607047174A24320029116801D0E5
:10060000014300E0814311607047124A50320029D3
:10061000116801D0014300E08143116070470D4A29
:1006200054320029116801D0014300E08143116078
:100630007047084A58320029116801D0014300E090
:10064000814311607047034A60320029116817D056
:10065000014316E000380240FFFFF6EA10300024A4
:100660000030002000004742800E47420000FFFF9C
:100670000024F40000000020FFFCFF0F00104742A0
:10068000814311607047194A0029116801D0014364
:1006900000E081431160704714490C31012808685B
:1006A00003D020F008000860704740F00800FAE727
:1006B0000E4A573A0029117801D0014300E08143E6
:1006C0001170704709481030016841F08071016075
:1006D00070470146054A0020583A12680A4200D085
:1006E000012070470149563908707047643802404C
:1006F000774910B5884206D101210846FFF753FF1C
:10070000002101205BE07349884206D101210220CB
:10071000FFF749FF0021022051E06F49884206D1CE
:1007200001210420FFF73FFF0021042047E06B492F
:10073000884206D101210820FFF735FF002108205B
:100740003DE06749884206D101211020FFF72BFFC9
:100750000021102033E06349884206D10121202086
:10076000FFF721FF0021202029E05F49884206D1C0
:1007700001214020FFF717FF002140201FE05B49C7
:10078000884206D101218020FFF70DFF0021802043
:1007900015E05749884202D1012184150AE05549E4
:1007A000884202D10121441504E0534988420AD10C
:1007B000012104152046FFF7F6FE00212046BDE882
:1007C0001040FFF7F0BE10BDF0B5002201274FF03A
:1007D000030C0B6807FA02F52B40AB422CD10668DC
:1007E00053000CFA03F4A64306600E79D0F800E03B
:1007F0009E4046EA0E0606600E79012E01D0022EBA
:1008000012D18668A64386604E79D0F808E09E40F3
:1008100046EA0E0686604668AE43466045688E79B5
:100820009640B6B235434560C568A543C560CC79EE
:100830009C40C3681C43C460521C102AC9D3F0BD3D
:100840004FF6FF7101600021017141718171C17129
:10085000704708B541F480320092C261C1610099CD
:10086000C161C169C069009008BD024600201269DB
:100870000A4200D001207047006980B270470246EA
:10088000002052690A4200D001207047406980B2BE
:10089000704701837047418370470AB101837047F5
:1008A000418370474161704742694A4042617047E5
:1008B0004B07DB0E9A40C90810B500EB8100016AB6
:1008C0000F249C40A1430162016A1143016210BDE3
:1008D000000002400004024000080240000C0240F8
:1008E000001002400014024000180240001C0240A8
:1008F000002002400024024000280240CD4910B5EB
:10090000884206D101211020FFF775FE002110203A
:1009100020E0C949884202D101214C0429E0C7499D
:10092000884202D101218C0423E0C549884202D1CA
:100930000121CC041DE0C349884202D101210C05EC
:1009400017E0C149884209D101212020FFF753FE59
:1009500000212020BDE81040FFF74DBEBB49884272
:1009600002D101218C0704E0B94988420AD1012152
:1009700044052046FFF735FE2046BDE81040002123
:10098000FFF72FBE10BD7FB50446008A0D46C9880B
:1009900020F4405001432182A08941F20C61884338
:1009A000A9882A8911436A8902431143A181A08A37
:1009B00020F44071A8890843A0826846FFF72CFD07
:1009C0009C48844202D0A048844201D1039800E0B0
:1009D0000298A189090400EBC00101EB001029680D
:1009E00001D5490000E08900B0FBF1F06422B0FBC2
:1009F000F2F109010B096FF018056B4300EB83005E
:100A0000A3891D044FF0320306D503EBC000B0FBF1
:100A1000F2F000F0070005E003EB0010B0FBF2F08D
:100A200000F00F00084320817FBD4FF41651016094
:100A300000218180C18001810C2242818181704727
:100A400010B5028A4C8822F470630A8822438C888D
:100A5000C9880C4322431A43028210BD0021018041
:100A600041808180C18070470029818902D041F492
:100A7000005101E021F4005181817047028B02F4A2
:100A80007F420283028B0A430283704700298189D7
:100A900002D041F4004101E0C1F30E0181817047B1
:100AA0000029818A02D041F4006101E021F4006153
:100AB00081827047C1F30801818070478088C0F34C
:100AC00008007047028A22F00F020282028A0A435B
:100AD000028270470029818902D041F0020101E0C1
:100AE00021F0020181817047828922F400628281B3
:100AF00082890A4382817047028A22F020020282A0
:100B0000028A0A43028270470029018A02D041F416
:100B1000804101E021F4804101827047818941F0E8
:100B20000101818170470029818A02D041F00801CA
:100B300001E021F0080181827047028BD2B202836A
:100B4000028B42EA0121018370470029818A02D089
:100B500041F0200101E021F020018182704700294D
:100B6000818A02D041F0100101E021F01001818260
:100B70007047828A22F004028282828A0A43828239
:100B800070470029818A02D041F0020101E021F082
:100B9000020181827047002A828A01D00A4300E064
:100BA0008A438282704710B5C1F3421301F01F04DB
:100BB0000121A140012B07D0022B07D01430002ABD
:100BC000026805D00A4304E00C30F8E71030F6E77D
:100BD0008A43026010BD0246002012880A4200D0FB
:100BE00001207047C9430180704770B501F01F05AF
:100BF00001260024C1F3421306FA05F2012B0FD09F
:100C0000022B0FD0838A4FEA11210088134206FA83
:100C100001F600EA060001D000B10124204670BDB3
:100C20008389F0E7038AEEE70A0A01219140C9436C
:100C3000018070470010014000440040004800401F
:100C4000004C00400050004000140140007800407B
:100C5000007C0040204810B54168491C4160816813
:100C600011B18168491E8160AFF3008010BD1A4B3D
:100C700010B5187800281AD1184801684FF47A7016
:100C8000B1FBF0F0401EB0F1807F11D24FF0E022B6
:100C90005061134CF02084F8140D0020906107205F
:100CA00010611048B1FBF0F0D8600120187010BD41
:100CB000FEE709480078002805D04FF0E0200169E0
:100CC00041F00201016170474FF0E020016921F01D
:100CD0000201016170470000100000208800002020
:100CE0000FE000E0C0C62D001CB500200321CDE9B7
:100CF000000103464FF4704401222146184800F0D9
:100D0000BBF817481A3004801CBD1CB50021022016
:100D1000CDE900010B460A460121124800F0ACF86B
:100D20001CBD10480069C1070F4805D0017829B9DA
:100D300001210170084670470021017000207047B2
:100D400008480069C107084803D00121017000204C
:100D5000704701780029FAD0002101700120704706
:100D6000000C024000000240200000202DE9F04F5E
:100D70008A46DDE9099C00214FF0010B4FF0030E7C
:100D80000BFA01F515EA0A0F21D007684C000EFA9C
:100D900004F6B74302FA04F847EA08070760012A95
:100DA00001D0022A0DD14768ADB2AF4303FA01F575
:100DB000ADB22F43476085680CFA04F7B5433D4355
:100DC0008560C568B54309FA04F63543C560491C1A
:100DD000C9B21029D4D3BDE8F08FB44AB4499042C7
:100DE00003D10A6842F001020A60B24A904203D17C
:100DF0000A6842F002020A60AF4A904203D10A68D0
:100E000042F004020A60AD4A904203D10A6842F0FF
:100E100008020A60AA4A904203D10A6842F010020E
:100E20000A60A84A904203D10A6842F020020A6090
:100E3000A54A904203D10A6842F040020A60A34AE0
:100E4000904203D10A6842F080020A60A04A9042B0
:100E500003D10A6842F480720A609E4A904203D12C
:100E60000A6842F400720A609B4A904203D1086803
:100E700040F4806008607047FCB51646DDE907C5A0
:100E80000C00074608D0FFF7A8FFCDE900C53246A1
:100E900021463846FFF76AFFFCBD2DE9FC4F994615
:100EA000DDE90BB792460D00064622D0FFF795FF0D
:100EB000002201214FF00F0C01FA02F028420DD060
:100EC000D00806EB8003186A5407E40E0CFA04F805
:100ED00020EA080007FA04F420431862521C102A82
:100EE000EAD3CDE9009B5346022229463046FFF75C
:100EF0003DFFBDE8FC8FF0B500220125032605FA71
:100F000002F30B4205D00468570006FA07F31C43AE
:100F10000460521CD2B2102AF1D3F0BDF0B5002209
:100F20000125032605FA02F30B4205D00468570099
:100F300006FA07F39C430460521CD2B2102AF1D384
:100F4000F0BDF0B500220127032607FA02F33C4664
:100F50000B4208D00568530006FA03FC25EA0C058D
:100F60009C4025430560521CD2B2102AEDD3F0BD3F
:100F7000F0B500220125032605FA02F30B4205D045
:100F80000468570006FA07F31C430460521CD2B2EF
:100F9000102AF1D3F0BD41F48032C261C161C26157
:100FA000C169C06970470146424A0020914200D1A0
:100FB0000120414A914200D10220404A914200D191
:100FC00003203F4A914200D104203E4A914200D181
:100FD00005203D4A914200D106203C4A914200D171
:100FE00007203B4A914200D108203A4A914200D161
:100FF0000920394A914200D10A207047002102E0BD
:10100000491C89B240080128FAD808467047274A87
:101010002749904203D10A6822F001020A60254A5A
:10102000904203D10A6822F002020A60224A9042EA
:1010300003D10A6822F004020A60204A904203D1D8
:101040000A6822F008020A601D4A904203D10A6829
:1010500022F010020A601B4A904203D10A6822F073
:1010600020020A60184A904203D10A6822F0400226
:101070000A60164A904203D10A6822F080020A6090
:10108000134A904203D10A6822F480720A60114A1E
:10109000904203D10A6822F400720A600E4A90421C
:1010A00003D1086820F480600860704700000240A7
:1010B000303802400004024000080240000C0240A8
:1010C000001002400014024000180240001C0240C0
:1010D0000020024000240240002802407CB50C465B
:1010E00005466A4601A940A002F0BCFA00280CD1CE
:1010F000009881698278891E514349082960807867
:10110000019948434008206000207CBD7CB50C4616
:1011100005466A4601A935A002F0A4FA00280CD1C0
:10112000009881698278891E514349082960807836
:10113000019948434008206000207CBD2DE9F0471C
:101140008246C068C2B0A0EB01040D004FF000075A
:10115000A14610D078B14FF48078854232D9002171
:10116000504602F02FF9002802D1504602F0DAFA78
:1011700042B0BDE8F0870020FAE74646B44200D806
:1011800026462946504602F01DF90028F0D140AB12
:1011900032466946504601F09FFE0028E8D13946A4
:1011A000504602F00FF90028E2D141AB32466946C1
:1011B000504601F02EFF0028DAD14098A41B0544C8
:1011C00041980744002CD8D14946504602F0FAF81D
:1011D0000028CDD1504602F0A5FA0021504602F079
:1011E000F1F8C5E701207047303A0000313A0000BD
:1011F000FE4A0146904200D10020FD4A914200D1B2
:101200000120FC4A914200D10220FB4A914200D1C8
:101210000420FA4A914200D10520F94A914200D1B6
:101220000620704770471CB50822032138B10128F9
:101230000CD0032802D1F248FFF7F4FF1CBDCDE922
:10124000001201230022C021EE4806E0CDE9001281
:10125000012300224FF48441EB48FFF71EFE1CBD22
:101260007CB528B1032802D1E448FFF7DBFF7CBD41
:1012700008250324012300221903E248CDE9004593
:10128000FFF70BFE012300220421E048CDE90045D1
:10129000FFF703FE7CBD1CB50822032138B10128ED
:1012A0000CD0032802D1D448FFF7BCFF1CBDCDE908
:1012B0000012012300220321D54806E0CDE90012E7
:1012C000012300224FF44061CE48FFF7E6FD1CBD2C
:1012D0001CB507220323990248B101280DD002282A
:1012E00011D0032802D1C348FFF79CFF1CBDCDE9F4
:1012F000003201230022C7480CE0CDE9003201236F
:101300000022C04806E0CDE90032012300224FF45C
:101310004071BE48FFF7C1FD1CBD1CB5072203216B
:1013200038B101280CD0032802D1B148FFF77AFF69
:101330001CBDCDE90012012300220C21B44805E0B8
:10134000CDE90012012300226021B048FFF7A5FD7E
:101350001CBD1CB50722032138B101280DD003287C
:1013600002D1A248FFF75EFF1CBDCDE900120123A8
:1013700000224FF4C061A64805E0CDE90012012328
:101380000022C021A348FFF788FD1CBD974A0146F3
:10139000904200D1A048964A914201D19E48103017
:1013A000944A914201D19C482030934A914201D104
:1013B00099483030914A914201D197484030904A43
:1013C000914201D19448503070472DE9FF4F85B0CC
:1013D0009A46DDE912B913460446DDF85480FFF75A
:1013E000D5FF054681488D4F0193844209D1386865
:1013F00040F0100038600698FFF7ABFF25208DF80D
:101400000000864E7A48361F844209D1306840F485
:10141000003030600698FFF780FF26208DF800002E
:101420007448844209D1306840F4802030600698C6
:10143000FFF74EFF27208DF800006F48844209D146
:10144000306840F4002030600698FFF724FF342015
:101450008DF800006948844209D1306840F480105A
:1014600030600698FFF7FCFE35208DF800006448D8
:10147000844209D1386840F0200038600698FFF7B0
:10148000D2FE47208DF800001498ADF80A00ADF8A0
:101490000EB0ADF810A0ADF80C90ADF808800020AB
:1014A0002873A08920F40050A08101A92046FFF7ED
:1014B0006AFAA08940F02000A08101268DF803601F
:1014C00006208DF801002046FFF792FE8DF80200FD
:1014D0006846FEF77AFE2E73A08940F40050A08182
:1014E00009B0BDE8F08F2DE9FF4104463F480025D3
:1014F0000C2617468846844206D1CDE90065029540
:1015000000230395FFF761FF3948844208D1CDE9F4
:101510000065029500233A4641460395FFF755FFC3
:101520003448844208D1CDE90065029500233A464B
:1015300041460395FFF749FF2F48844208D1CDE982
:101540000065029500233A4641460395FFF73DFFAB
:101550002A48844208D1CDE90065029500233A4625
:1015600041460395FFF731FF2548844208D1CDE974
:101570000065029500233A4641460395FFF725FF93
:10158000BDE8FF812DE9FF470446184800250C26D9
:101590001F4690468946844205D1CDE900650295F3
:1015A0000395FFF712FF1248844208D1CDE9006588
:1015B00002953B46424649460395FFF706FF0D4814
:1015C000844208D1CDE9006502953B464246494632
:1015D0000395FFF7FAFE0848844223D1CDE9006560
:1015E00002953B4642464946039519E000100140EA
:1015F0000044004000480040004C004000500040C3
:10160000001401400008024000180240000C024093
:101610000000024000040240240000204438024040
:10162000FFF7D3FE8948844208D1CDE900650295D1
:101630003B46424649460395FFF7C7FE844884422D
:1016400008D1CDE9006502953B46424649460395DF
:10165000FFF7BBFEBDE8FF8700B50023FFF796FE4E
:10166000C28862B141898388994201D100214181B8
:10167000036889B25B56491C4181521EC280D8B2B0
:1016800000BD10B50C46FFF781FEC38842890DE00E
:101690008188914200D100220168895CA14201D178
:1016A000012010BD521C5B1E92B29BB2002BEFD1E9
:1016B000002010BDF0B516460F4684460024FFF703
:1016C00065FE0546C08840B1697B6046FFF7D9FFDB
:1016D00078B9E888A98888420BD00020F0BD604620
:1016E000FFF7BAFF3855697B884205D0641CA4B265
:1016F00000E0761EB442F2DB0021641CA0B2395433
:10170000F0BD00B5FFF742FEC08808B1002000BD63
:10171000012000BD00B5FFF739FEC18880888142F5
:1017200001D1012000BD002000BD00B5FFF72EFE55
:101730000021C1800181418100BD00B50B46FFF74A
:1017400025FE437300BD10B50C460346FFF71EFE91
:10175000007B00280BD007E019880906FCD598808B
:10176000641C18880006FCD520780028F4D110BD30
:1017700070B515460E460446FFF708FE007B0028AC
:101780000DD0002309E020880006FCD5F05CA08085
:1017900020880006FCD55B1C9BB2AB42F3D370BD26
:1017A000C388828893420DD20389934201D10022DB
:1017B000028103890268D1540189491C0181C188D1
:1017C000491CC180704723480188890603D5808859
:1017D000C1B22148E4E7704720480088800606D55A
:1017E0001E48001D0088C1B21B481030D8E7704762
:1017F0001B480088800606D51948001D0088C1B224
:1018000015482030CCE7704716480088800606D57A
:101810001448001D0088C1B20F483030C0E770473F
:101820000A480188890604D58088C1B20A48403038
:10183000B6E7704706480088800606D50448001DB4
:101840000088C1B204485030AAE7704700500040F9
:10185000001401400010014024000020004400401A
:1018600000480040004C00401248017809B140781F
:101870007047052070470F480078002804D00E49B3
:10188000A1F2AC5004F0F7BA704738B5094C022009
:10189000094A607009480090094B0121A2F2AC503E
:1018A00004F002F9FFF7E7FF01202070BDE838409F
:1018B000DAE7000084000020A8070020F0000020E4
:1018C000D8000020ADF5936D012400F097F9FFF7E3
:1018D000CEF9FFF709FAFFF7D8FF324D2603A70329
:1018E00005F10208FFF7C7FFFFF7BEFF012804D08C
:1018F0002F80A8F800600124F4E7002CF2D0012228
:1019000029A18AA801F026FA002845D12E801322A9
:1019100026A101A801F043FA00283DD10DF59261FE
:101920000024081DFFF7F2FB01A924A002F089FAA8
:1019300001A92DA002F085FA01A939A002F081FACF
:1019400001A945A002F07DFADDF8942449A1100D0B
:101950000090930A0DF25C4005F050FB01A90DF2D6
:101960005C4002F06EFADDF890244AA1100D009060
:10197000930A0DF25C4005F041FB01A90DF25C40B9
:1019800002F05FFA01A926A002F05BFA01A801F0BB
:101990004DFC2E80A8F80070012203A1002001F068
:1019A000D9F99FE7180C0240313A0000313A7573BB
:1019B000625F66696C652E747874000054686973A0
:1019C000206973206D792066697273742066696C72
:1019D0006520776974682055534220616E64204603
:1019E000617446530A0000007769746820555342B9
:1019F000204D534320484F5354206C6962726172EA
:101A0000792066726F6D2073746D333266342D6485
:101A10006973636F766572792E636F6D0A000000DB
:101A20002D2D2D2D2D2D2D2D2D2D2D2D2D2D2D2DE6
:101A30002D2D2D2D2D2D2D2D2D2D2D2D2D2D2D2DD6
:101A40002D2D2D2D2D2D2D2D2D2D2D2D2D2D2D2DC6
:101A50002D2D2D2D0A00000055534220746F746106
:101A60006C20616E642066726565207370616365C9
:101A70003A0A0A00546F74616C3A20253875206B5D
:101A8000423B20253575204D423B202532752047AD
:101A9000420A0000467265653A2020253875206BA1
:101AA000423B20253575204D423B2025327520478D
:101AB000420A00007047FEE7FEE7FEE7FEE77047D8
:101AC00070477047704710B5FFF7C4F810BD0000AD
:101AD00070B55D4D28685D4B5D4910F00C0004D079
:101AE0005E10042803D0082803D00B601BE00E60B2
:101AF00019E0554A121F1068C0F38054106800F0B6
:101B00003F0014B1B6FBF0F001E0B3FBF0F0136856
:101B10001268C3F388135843C2F30142521C5200A7
:101B2000B0FBF2F008602868494AC0F30310121DA8
:101B3000105C0A68C2400A6070BD1CB400224248B2
:101B4000009208380192016841F4803101604FF43D
:101B5000A043016801F4003101910099491C0091F2
:101B6000019911B900999942F3D10168890302D50D
:101B70000121019100E00192334938310A6842F0B5
:101B800080520A6033490A6842F440420A602E4992
:101B90000A680A600A6842F400420A600A6842F46D
:101BA000A0520A60019C0A1F2B4B012C1AD02B4C0F
:101BB0001460026842F08072026002689201FCD5F3
:101BC00040F202701860086820F00300086008689E
:101BD00040F0020008600868C0F381000228FAD1D2
:101BE0001CBC75E71E4C1460026842F080720260F3
:101BF00002689201FCD540F20570E3E7194810B580
:101C0000016841F4700101600F480838016841F033
:101C1000010101600C4A002111600268124B1A4058
:101C20000260031D114A1A60026822F480220260D9
:101C30000548001D0160FFF780FF0A494FF0006072
:101C40008039086010BD0000083802400024F4000C
:101C50008800002000700040003C0240085400074B
:101C60000854400788ED00E0FFFFF6FE1030002426
:101C700001004FF0010003D0012901D102F0B2BAF6
:101C8000704701004FF0010003D0012901D102F09B
:101C9000BDBA704730B40D46010014464FF0040041
:101CA00007D0012905D12146284630BC1A4602F04A
:101CB000B0BA30BC704730B40D460146144604201B
:101CC0004BB10029F5D00129F3D12146284630BC7B
:101CD0001A4602F0CCBA0420EBE70B4601004FF0A5
:101CE000040005D0012903D11146184602F0F2BACA
:101CF00070470148704700000000FC422DE9F041A8
:101D0000044600790027F8B1266B04F134016078AD
:101D1000012332468846FFF7CEFF08B1012713E0C2
:101D200000202071606AE169301A88420CD2E5789F
:101D300008E0E06901230644607832464146FFF737
:101D4000BAFF6D1E022DF4D23846BDE8F08170B5A1
:101D50000446006B0E460025B0420FD02046FFF728
:101D6000CDFF05000AD160780123324604F1340129
:101D7000FFF790FF08B16E1E01252663284670BD4F
:101D800070B50446FFF7BAFF05004FD1207803284D
:101D900045D16079012842D1420204F1340000218A
:101DA000064602F073F9552084F83202AA2084F81E
:101DB0003302522084F8340084F83500612284F81C
:101DC0003620412084F83700722184F8181284F8F4
:101DD000191284F81A0284F81B22206984F81C0264
:101DE000010A84F81D12010C84F81E12000E84F8FA
:101DF0001F02E06884F82002010A84F82112010C15
:101E000084F82212000E84F82302226A0123521C55
:101E1000226360783146FFF74EFF00206071002298
:101E200060781146FFF759FF00B10125284670BDC3
:101E30008269891E921E8A4201D800207047C26AB8
:101E4000807801FB002070472DE9F0410D460446E3
:101E500002290BD3A069A84208D920784FF0FF3699
:101E6000012806D002282AD0032835D00126304682
:101E70006BE7606A05EB550700EB57212046FFF73B
:101E800066FF0028F3D1C7F3080020447F1C90F8B8
:101E90003480606A00EB57212046FFF758FF002886
:101EA000E5D1C7F30800204490F8341048EA012037
:101EB000E90701D00609DAE7C0F30B06D7E7606A45
:101EC00000EB15212046FFF742FF0028CFD1E8B2F2
:101ED00004EB4000868ECAE7606A00EBD51120460D
:101EE000FFF735FF0028C2D140F2FF1000EA85005D
:101EF000204490F83410D0F8350041EA002020F05A
:101F00007046B4E72DE9F04716460D46044602290F
:101F100002D3A069A84202D80220BDE8F087207849
:101F200006F0FF084FF00109012820D0022850D008
:101F30000328F1D1606A00EBD5112046FFF707FFB7
:101F40000028EAD140F2FF1101EA850121444FF057
:101F50007043D1F8352003EA0222324301F8342FCE
:101F6000130A4B70130C8B70120ECA7041E0606A3A
:101F700005EB550700EB57212046FFF7E8FE002848
:101F8000CBD1C7F30800204434307F1CE90703D0CD
:101F9000017868F31F1100E03146017084F8049065
:101FA000606A00EB57212046FFF7D1FE0028B4D12C
:101FB000C7F3080121443431EA0702D0C6F30712FF
:101FC00005E00A78C6F3032302F0F0021A430A7010
:101FD0000FE0606A00EB15212046FFF7B8FE0028ED
:101FE0009BD1E9B204EB4101320A81F8348081F8D7
:101FF000352084F8049090E72DE9F0410F4604461F
:10200000022916D3A069B84213D900261FE0394629
:102010002046FFF719FF05001CD0012D09D0681CD0
:1020200009D0002239462046FFF76CFF060011D187
:1020300003E002260EE001260CE02069411C05D0D9
:10204000401C2061607940F0010060712F46A0695A
:10205000B842DCD8304678E62DE9F0410F0006465C
:1020600005D0FFF7F1FE022808D201206DE6F568E1
:1020700015B1B069A84207D8012505E0411CF5D08B
:10208000B1698142F2D83D462C46B069641CA04239
:1020900002D80224022D0AD321463046FFF7D4FE8F
:1020A00038B1411CE2D00128E0D0AC42EDD1002093
:1020B0004BE66FF0704221463046FFF723FF30B900
:1020C00057B1224639463046FFF71CFF20B10128A0
:1020D0000DD00124204638E6F4603069411CF9D067
:1020E000401E3061707940F001007071F2E74FF0EE
:1020F000FF34EFE770B5C18083680D460446012BBD
:1021000034D020688169994230D923B901780329F4
:1021100004D1836A13B18078060110E00189A942D5
:1021200024D9806A11E0FFF78FFE0346401C1BD0C4
:10213000022B1BD320688069984217D9AD1B2068F9
:10214000B5421946EFD2FFF773FEE36070B100EBC2
:102150001510206105F00F013422206802EB4111B7
:1021600008446061002070BD012070BD022070BD78
:102170002DE9F041C78804467F1C38040E46000C48
:102180002CD0206950B3390759D1401C2061E16837
:10219000206829B18278521E12EA171F04D04EE03F
:1021A0000089B8421AD94AE0FFF74EFE05460128D9
:1021B00018D9681C2FD020688169A94239D86EB11E
:1021C000E168FFF749FF05000AD0012D0AD0681C1D
:1021D00021D02068FFF792FDE8B905E00420B4E5BE
:1021E0000720B2E50220B0E520684FF4007200211C
:1021F000343001F04BFF29462068FFF719FE2168B3
:1022000000264FF0010808630CE080F80480206885
:10221000FFF774FD08B1012097E52068016B491CA8
:10222000761C016320688178B142EED8016B891B6E
:102230000163E56029462068FFF7FAFD2061E78029
:1022400007F00F013422206802EB4111084460615D
:1022500000207AE570B50E4605460021FFF74AFFDB
:1022600088B9002429692868FFF771FD58B96969A0
:102270000978E5290BD051B1002401212846FFF748
:1022800077FF0028EED0042800D1072070BD641C21
:10229000B442F2D170BD2DE9F05F04460021FFF792
:1022A00029FF00287AD1FF254FF6FF70AB46208426
:1022B00021692068FFF74BFD07007CD16669307803
:1022C00048B1F17AE52801F03F0169D00A0704D549
:1022D0000F2965D105E004276DE00F2901D08DB3EA
:1022E0004DE0E16979B3420606D596F80DB020F0CD
:1022F0004000E28805462284A84236D1727B5A45C6
:1023000033D130788A4620F04000401EB14600EBC1
:10231000800101EBC0064FF000080127FB4810F8D0
:10232000081001EB0900008877B101F047FF07466C
:10233000FF2E1AD23AF81600761C01F03FFFB84281
:1023400013D105E016E02FE0A0F57F41FF390CD155
:1023500008F10108B8F10D0FE0D399F8000040062C
:1023600006D52FB13AF8160010B1FF25EDB21BE0EB
:102370006D1EFBE7304601F0E5FE58451BD0A06915
:10238000C17AC9070CD10B210022491E07D316F8C8
:10239000012B10F8013BD21AF7D001E00CE052B14A
:1023A0004FF6FF70FF25208400212046FFF7E0FE56
:1023B00007003FF47DAF3846BDE8F09F2DE9F35F9D
:1023C000FF2504462E4604274FF6FF7A4FF0000BF8
:1023D00067E02068FFF7BBFC070066D162691078F0
:1023E00078B1D17AE52801F03F0108D021F020032F
:1023F000082B08D00023DDF804C0634505D0FF2575
:1024000040E0042751E00123F5E70F2901D0B5BBD7
:102410003FE0410605D5567B20F04000E1880546A7
:102420002184A8422CD1507BB04229D11078DFF80A
:10243000DC9200F03F00401E00EB800101EBC00188
:102440000020E7690123D44619F800809044B8F8C9
:10245000008033B1FF2913D227F811804346491C6D
:1024600001E0E0450CD1401C0D28EDD3107840066A
:1024700003D5FF2904D227F811B06D1E01E00DE04D
:10248000FF25EDB200212046FFF772FE070008D0BD
:102490000BE0104601F056FEB04208D0A4F820A090
:1024A00005E02169002994D10FB1C4F810B0384675
:1024B000BDE8FC9F2DE9FF5F04460C22D4E90676B7
:1024C0003946684601F0D2FD9DF80B00810602D521
:1024D000062004B070E7C00718D00020F87201256C
:1024E000E0612B4632466946384601F0EFFD204652
:1024F000FFF7D1FE10B96D1C642DF2D3642D0BD003
:102500000428E6D19DF80B00F872E6619DF80B00F7
:1025100080070DD5002002E00720DAE7401C36F8DE
:1025200010100029FAD10D211930B0FBF1F500E0AF
:10253000012529462046FFF78DFE06006BD16D1E52
:1025400050D0E088411B2046FFF7D4FD060062D141
:10255000A06901F0F7FD4FF6FF7A0390216920682A
:10256000FFF7F5FB060056D16169D4F81C9003987B
:1025700048730F20C872002008738876EEB2C876C0
:10258000701E00EB800202EBC0030022DFF87CB17A
:1025900001F1010801E0504502D039F813005B1C3D
:1025A0001BF802C001F80C001BF802704FEA102C57
:1025B00007F808C000B95046521C0D2AEBD350450D
:1025C00002D039F8130008B946F040060E702168B1
:1025D0000120087100212046FFF7CAFD06001AD12C
:1025E0006D1EBBD121692068FFF7B1FB060012D137
:1025F00020220021606901F049FDD4E905010B2288
:1026000001F034FDA0696169C07A00F01800087318
:1026100021680120087130465BE72DE9F041018C0B
:102620000446C688A1F57F40FF3800D131462046D8
:10263000FFF760FD05001ED1E5274FF00108216975
:102640002068FFF784FB050012D120220021606979
:1026500001F01CFD60690770216881F80480E08842
:10266000B04208D200212046FFF782FD0500E6D0E7
:10267000042D00D102252846EDE42DE9F0410D4658
:1026800001F10904016969B3002341692E27CA5C7D
:102690005B1C202A18D0052A00D1E522092B01D184
:1026A00004F8017BA2F14106192E0BD891F80CC059
:1026B000092B01D3102600E008261CEA060F01D0E2
:1026C0002032D2B204F8012B0B2BE0D3CA7A2A7243
:1026D0000A7FD1F81D3042EA03222A600A8BAA80C1
:1026E000C98AE9804FF0000884F80080AF69002FA4
:1026F00020D001690024D9B1E969C9B1018CA1F5E3
:102700007F42FF3A14D0C6690EE000001074000842
:10271000002101F039FD18B1E969491EA14201D833
:10272000002405E03855641C36F8020B0028EFD170
:1027300007F804808FE4FFB583B01D4614460646B3
:1027400004E004A801F00BFD00281AD0641EF8D2A2
:10275000307800B9A5B904980196009001980078E6
:102760003F2810D02A280ED001A801F0F8FC074617
:10277000684601F0F4FC0446A7421AD1002FEDD1BF
:10278000012007B0F0BD00221346019810F8011B8C
:1027900001903F2915D0012300783F28F5D02A2841
:1027A000F3D0DDE90010FFF7C6FF0028E8D100985C
:1027B000047804A801F0D3FC0DB1002CCBD100208B
:1027C000DFE7521CE8E72DE9F84F884683460D689D
:1027D00000E06D1C28782F28FBD05C28F9D000245D
:1027E000DBF81C902646A85D761C202815D32F28E0
:1027F00013D05C2811D0FF2C50D2012101F0C4FC71
:1028000007004BD0802F04D20146FEA001F045FC0A
:10281000F0BB29F81470641CE5E7AA19C8F8002079
:10282000202801D2042600E000260021012C05D03A
:10283000022C31D1B9F802002E2817D1B9F80000C6
:102840002E2813D129F814100020A04201D22E21E5
:1028500000E02021DBF818201154401C0B28F4D391
:10286000DBF8181046F020020A54AEE009EB4400F1
:1028700030F8020C20280ED02E280CD044B129F8B4
:1028800014100B222021DBF8180001F0FFFB00E000
:1028900004E0002706E0641E002CE7D10620BDE816
:1028A000F88F7F1C39F817002028FAD02E28F8D08E
:1028B0001FB146F0030600E0641E2CB109EB440092
:1028C00030F8020C2E28F7D14FF0000A0820D0462D
:1028D000009039F817507F1C0DB3202D03D02E2DFA
:1028E00004D1A74202D046F00306F2E700998A45D8
:1028F00001D2A74219D10B290FD0A74201D046F02F
:1029000003060CD84FF00B0000904FEA8860274672
:102910004FF0080A4FEA1068DBE746F00306DBF8E1
:1029200018000178E5292ED02FE0802D0CD300214E
:10293000284601F029FC050003D0B548284410F8CA
:10294000805C46F0020625B12946B2A001F0A5FB45
:1029500018B15F2546F003060EE0A5F141001928E5
:1029600002D848F0020807E0A5F16100192803D851
:10297000203D48F00108ADB2DBF8181001F80A500C
:102980000AF1010AA5E7052101700098082803D182
:102990004FEA88604FEA1068C8F38100032803D02B
:1029A0006FEA0801890701D146F00206B10709D490
:1029B00008F00301012901D146F01006012801D1D8
:1029C00046F00806DBF81800C672002067E773B50A
:1029D00004460199002508782F280ED05C280CD0D9
:1029E00020684069A06001980078202809D2002161
:1029F0002046FFF77FFB65617CBD491C0191A56006
:102A0000F1E701A92046FFF7DEFE0028F4D12046B9
:102A1000FFF741FCA169C97A68B10428ECD18A06A4
:102A200005D5A56065614807EBD500207CBD490749
:102A3000FCD405207CBD4907FCD46169C87AC00676
:102A4000F7D5206801F031FBA060DAE710B5034646
:102A50004FF0FF301C68002C13D0214600E0491CC9
:102A60000A78202A0ED33A2AF9D114F8012B303AE9
:102A70000A2A06D28C4204D1022A02D2491C1046EC
:102A8000196010BD6548007810BD10B504460020DF
:102A90002071401E20632046FFF759F908B103203A
:102AA00010BDB4F83202A0F52A41553901D00220F8
:102AB00010BD94F86A00B4F86B1040EA0121584840
:102AC000B0EB012F08D094F88610B4F8872041EAC3
:102AD0000221B0EB012F01D1002010BD012010BD5B
:102AE0002DE9FF474FF000080646C0F80080174662
:102AF0000846FFF7ABFF050003D50B2004B0BDE887
:102B0000F0874648001D50F8254094B13460207885
:102B100020B16078FFF7B5F8C1070CD084F80080C9
:102B2000E8B246466070FFF7A3F8C10708D003205B
:102B3000E4E70C20E2E70FB1400704D40020DDE712
:102B40001FB1400701D50A20D8E7002529462046B5
:102B5000FFF79BFF012823D100206A4604EB0011F8
:102B600091F8F63101F5F9712BB10B7AD1F8091012
:102B700043EA012100E0002142F82010401C042813
:102B8000ECD30027904658F8275025B12946204617
:102B9000FFF77BFF00E0022040B17F1C042FF2D33F
:102BA000032801D0F0BB01E00120A7E7B4F83F0003
:102BB000B0F5007F6CD1B4F84A0028B994F85800F9
:102BC000D4F8591040EA0120E06194F8443081467D
:102BD000E370012B01D0022B5AD194F8417043438A
:102BE000A770FFB1781E074252D1B4F84510218179
:102BF00008074DD1B4F84700B8B994F85400D4F898
:102C0000552010E0222A3A3C3E3F7C7F0000000025
:102C1000907300082B2C3B3D5B5D00009C00002066
:102C20000046415434E040EA0220B4F842207AB32E
:102C300002EB030C0CEB111C604529D3A0EB0C003C
:102C4000B0FBF7F020B3012740F6F678404500D3FB
:102C500002274FF6F678404500D30327801CAC448A
:102C6000C4F82CC02A44A061C4E90852032F11D033
:102C700071B1D118A162022F17D000F0010100EB51
:102C8000400001EB500000F2FF10B9EB502F0ED2C4
:102C90000D2033E70029FBD194F86010D4F86120AF
:102CA000800041EA0221A162EDE74000EBE74FF02E
:102CB000FF302061E06080206071032F2FD1B4F8D5
:102CC000640001282BD12046691CFFF740F830BB77
:102CD0006671B4F83202A0F52A4155391FD194F833
:102CE0003400D4F8351040EA0120FB49884216D15F
:102CF00094F81802D4F8191240EA0120F7498842E2
:102D00000DD194F81C02D4F81D1240EA0120206174
:102D100094F82002D4F8211240EA0120E060F04942
:102D200027704888401C4880E080666106E710B53F
:102D300038B1016829B10A781AB1CA8880888242FC
:102D400001D0092010BD4878FEF79BFFC007F9D0DD
:102D5000032010BD17B581B0144602980090684654
:102D6000FFF774FE002802DA0B2004B010BDDC4B24
:102D70001B1D002253F8201001B10A70019900298F
:102D800000D00A7043F8201001D0012C01D000209F
:102D9000EBE7002202A901A8FFF7A2FEE5E72DE973
:102DA000F7478DB006000ED04FF0000802F01F0765
:102DB00027F001020EA96846C6F80080FFF790FED2
:102DC000050003D086E0092010B098E60AA8069016
:102DD000C448079068460E99FFF7F9FD059C050069
:102DE00001D104B9062517F01C0F4AD055B1042DA6
:102DF00003D16846FFF75EFB0546059C47F00807D0
:102E000045B167E0E07A10F0110F44D1780701D5A1
:102E100008255FE0380744D5FEF76BFFA073010A71
:102E2000E173010C2174000E607484F80B8084F847
:102E30001C8084F81D8084F81E8084F81F80214641
:102E4000009801F032F981460021204601F036F960
:102E500000990120B9F1000F087120D0009849466F
:102E6000D0F830A0FFF7C8F8050033D10099A9F1D8
:102E70000100C86051460098FEF769FF05000CD0BC
:102E800028E03DBBE07AC10601D5042522E0B90760
:102E900003D5C00701D007251CE0380701D547F04E
:102EA000200700982146006BC6E90704B77186F831
:102EB00007804746009801F0F8F83061207FD4F889
:102EC0001D1040EA0120C6E90270B7610098306029
:102ED000C088B080284677E72DE9F84F8946002161
:102EE0009A46164604461960FFF721FF002812D1C2
:102EF000E07900280FD1A079C0070BD0D4E90210E7
:102F0000401A04F124014FF0010B009186427CD954
:102F100006467AE00720C2E4A068C1055DD12268B8
:102F20009178491E01EA502111F0FF0709D1F8B14B
:102F300010466169FEF788FF02281BD3411C46D06A
:102F4000606161692068FEF773FF98B100EB0708C4
:102F5000750A23D020687A1981788A4200D9CD1B5E
:102F600040782B4642464946FEF794FE78BB04E083
:102F70002069E1E70220E07191E4A07940060BD5D9
:102F8000A169A1EB0800A84206D209EB40204FF44A
:102F90000072009901F06AF86D022CE0A2694245C6
:102FA00019D0A07940060AD52068012300994078FD
:102FB000FEF781FE58B9A07920F04000A07120688A
:102FC0000123424640780099FEF764FE18B184F868
:102FD00007B0012063E4C4F818802089C0F308001A
:102FE000C0F50075B54200D9354601192A46484654
:102FF000243101F03BF8A068A9442844A060DAF825
:1030000000004119761BCAF80010002E84D1002060
:1030100045E42DE9F84F894600219A4616460446B4
:103020001960FFF784FE002806D1E079002803D15B
:10303000A079800701D4072031E4A06804F12401BD
:1030400082194FF0010B0091824275D394E0A06881
:10305000C10575D122689178491E01EA502111F00D
:10306000FF0512D108B1616902E0206928B9002189
:103070001046FEF7F1FF00285ED0012834D0411C35
:1030800056D06061216901B92061A07940060BD555
:1030900020680123A26940780099FEF70CFED0B9A0
:1030A000A07920F04000A07161692068FEF7C0FEA1
:1030B000D0B100EB0508770A2BD02068EA19817897
:1030C0008A4200D94F1B40783B4642464946FEF7AC
:1030D000F2FD00B90BE02BE0525261417272416186
:1030E0009C000020F00800200220E0716EE4A1693D
:1030F000A1EB0800B8420AD209EB40214FF400725C
:10310000009800F0B3FFA07920F04000A0717D028C
:1031100028E0A169414511D0D4E9020188420DD2CD
:1031200020680123424640780099FEF7B3FD28B19C
:1031300084F807B0012049E421E001E0C4F81880D8
:103140002089C0F30800C0F50075B54200D93546A6
:1031500020442A464946243000F088FFA07940F0F8
:103160004000A071A068A9442844A060DAF80000DB
:103170004119761BCAF80010002E7FF468AFD4E91D
:103180000201884200D9E060A07940F02000A071DF
:1031900000201BE470B50446FFF7C9FD00280ED1DE
:1031A000A1798A060BD548060ED52068012304F1C3
:1031B00024014078A269FEF77EFD08B1012070BDB0
:1031C000A07920F04000A071E1692068FEF7BFFD02
:1031D0000028F4D1256AE87A40F02000E872207BCC
:1031E0002877A089000A6877E068000CA877E06873
:1031F000000EE8772846216900F060FFFEF779FDB0
:10320000A875010AE975010C2976000E6876002080
:10321000A874E874A07920F02000A0712168012032
:1032200008712068BDE87040FEF7AABD10B50446DD
:10323000FFF7B0FF002806D12046FFF778FD0028F1
:1032400001D10021216010BD01B56846FFF7FEFBEA
:10325000002801DA0B2008BDFE490870002008BDD7
:1032600011B58DB000220DA96846FFF739FC0400A6
:103270000BD10AA80690F848079068460D99FFF709
:10328000A6FB040004D0042C10D00EB0204610BDC4
:10329000059848B1C07AC00608D50599009800F095
:1032A00004FF00994861F0E70298FAE70524ECE78B
:1032B0002DE9F34395B00E4615994FF000094A46A3
:1032C00081F8009015A96846FFF70AFC040075D143
:1032D00012A80690E0480790009835464FF02F0856
:1032E000406902904FE001216846FEF703FF0400A9
:1032F0004CD100216846FFF761F8040046D10599DA
:10330000009800F0D2FE029000216846FEF7F2FE1F
:1033100004003BD100216846FFF750F804000BD1B0
:103320000599009800F0C1FEB8420BD00021684614
:10333000FEF71EFF0400EDD0042C01D034BB01E0E9
:10334000022423E01598CDE910050AA96846FFF785
:1033500094F9159A0DF13101107800B11146002051
:1033600000E0401C0B5C002BFBD1C31C9D4205D22E
:1033700011240BE0401E6D1E0B5C53550028F9D143
:103380006D1E02F80580029F002FACD115980146F2
:1033900094B9B04A1278303200F8012B3A2200F882
:1033A000012BB54202D100F8018B05E04A5D6D1C8E
:1033B00000F8012BB542F9D380F8009017B02046F1
:1033C000BDE8F0832DE9F0470D460446FFF7AFFC5A
:1033D0005FEA00086FD1E07900286CD1E068A8426C
:1033E00003D2A179890700D405460027A0684FF0D1
:1033F0000109A7600DB322684FF0020A91784E02CE
:1034000068B1691E401EB1FBF6F1B0FBF6F39942BC
:1034100005D3711E8843A0602D1A61690CE02169F3
:1034200049B900211046FEF717FE014601283FD09A
:10343000481C4ED021616161D1B926E0A079800796
:10344000206805D5FEF708FE010004D1354611E0DD
:10345000FEF7FAFC0146481C3BD0012928D9206818
:103460008069884224D96161A068AD1B3044A060A6
:10347000B542E3D8A0682844A060E80505D02068DC
:10348000FEF7D6FCA0B100EB55272089C00525D05A
:10349000A269BA4222D0A07904F12405400610D5D1
:1034A0002068012329464078FEF705FC88B904E02E
:1034B00084F807A00220BDE8F087A07920F0400042
:1034C000A071206801233A4640782946FEF7E2FBC6
:1034D00018B184F807900120EDE7A761D4E9020153
:1034E000884204D9E060A07940F02000A0714046F5
:1034F000E1E713B584B0040006D0002205A96846B0
:10350000FFF7EEFA18B121E0092006B010BD0098CF
:10351000206001A8A0615048E06120460599FFF7AE
:1035200056FA78B9616931B1C87AC00611D50098E8
:1035300000F0BBFDA06000980021C088A08020465C
:10354000FEF7D8FD042804D00028DED00021216039
:10355000DBE70520FAE710B50446FFF7E8FB002893
:1035600001D10021216010BDFEB50E460446FFF7D3
:10357000DEFB002819D1CEB1C4F818D03648E0617E
:1035800000212046FEF71AFF0025042813D000284A
:103590000BD131462046FFF770F800212046FEF798
:1035A000E7FD042801D100202561FEBD0021204651
:1035B000FEF7A0FDFEBD2561EBE72DE9F0410C46CD
:1035C000064601F1090721463046FFF7CDFF050009
:1035D00012D18CB1607A78B1A16929B100231A4661
:1035E000706AFFF7A8F838B900231A463946706A9E
:1035F000FFF7A1F80028E6D02846BDE8F08170B5B5
:103600000D46044611464362FFF773FF002804D1BC
:1036100029462046BDE87040CFE770BD33B58DB078
:103620000D4600220DA96846FFF75AFA040016D18C
:103630000AA806900848079068460D99FFF7C7F951
:1036400004000CD1059848B14DB129466846FFF7F2
:1036500014F804E09C000020F008002006240FB0BD
:10366000204630BD2DE9F74F14468A4600226946B0
:103670002046FFF735FA25685FEA00084FD1AF69A9
:103680002869B91E884202D8CAF8000047E095F8B8
:1036900000900024B9F1010F01D06E6A16E00226F5
:1036A00031462846FEF7D0FB411C03D0012803D049
:1036B00028B105E0012000E00220804628E0641CDB
:1036C000A869761C8642EBD322E059B93146761CB4
:1036D0002846FEF73CFB5FEA000819D105F13400EB
:1036E0004FF40071B9F1020F07D00278D0F8013021
:1036F00042EA0322120106D006E0028802B9641CE5
:10370000801C891E02E0641C001D091F7F1EDCD185
:103710002C61687940F001006871CAF800404046A9
:10372000BDE8FE8F70B50446FFF701FB05003DD1F3
:10373000E07918B10546280005D037E0A079800768
:1037400001D4072532E0D4E9020181422ED9E0609C
:10375000A17941F02001A17150B161692068FEF7A3
:1037600073FB0646401C0BD0012E0BD065B11CE04C
:1037700021692068FEF740FC05460020206113E027
:10378000012512E0022510E020688169B1420FD9BD
:103790006FF070426169FEF7B5FB050005D1314657
:1037A0002068FEF729FC054615B1E571284670BD75
:1037B000A0794006FAD52068012304F1240140785D
:1037C000A269FEF778FA0028DAD1A07920F040004B
:1037D000A071EBE731B598B0012218A96846FFF750
:1037E0007FF9002814D114A80690FE480790684677
:1037F0001899FFF7ECF800280AD10698C07A8006DD
:1038000005D4059D1DB1E87AC00735D102E0062038
:1038100019B030BD2946009800F047FC04001BD0C9
:10382000E87AC00618D500984069A04224D0282222
:1038300069460AA800F01AFC02210AA80C94FEF7B7
:1038400059FC0028E4D100210AA8FEF7B7FD98B181
:10385000042801D00028DBD16846FEF7DEFE0028F0
:10386000D6D12CB121460098FEF7C6FB0028CFD157
:103870000098FEF785FACBE70720C9E72DE9F14F5D
:1038800090B0FEF736FA0646012210A96846FFF707
:1038900027F904000BD10CA80690D248079068467F
:1038A0001099FFF794F8040002D0042C02D09BE09A
:1038B000082499E00698C07A800601D5062493E092
:1038C00000210098FEF7C8FB5FEA00084FF00004F3
:1038D00003D0B8F1010F02D002E0072400E0022477
:1038E000B8F1FF3F01D014B164E0012462E0009818
:1038F000FEF704FA04005DD141460098FEF798FAFD
:10390000009D074634354FF400720021284600F030
:10391000BDFB0B222021284600F0B8FB2E242C7082
:103920001020E872F0B20B90A875C6F307200A9039
:10393000E875C6F3074B85F818B04FEA166A85F8A4
:1039400019A04146284600F0B9FB05F120002022CD
:103950002946064600F08AFB85F821400098029926
:103960000078032804D10098806A884200D10021A1
:10397000304600F0A3FB00984FF00109867812E072
:103980000098076300997F1C81F804900098FEF767
:10399000B5F904000ED14FF400720021284600F062
:1039A00075FB761EF6B2002EEAD16846FEF782FD60
:1039B000040004D041460098FEF71EFB14E0059871
:1039C0001021C1720B9981750A99C17580F818B0E0
:1039D00080F819A0414600F071FB009981F804902D
:1039E0000098FEF7CDF9044611B02046BDE8F08FEF
:1039F00037B58EB015460C4601220EA96846FFF772
:103A00006FF800281CD10AA80690764807906846EF
:103A10000E99FEF7DCFF002812D10698C07A8006C6
:103A200010D4059870B105F02702C17A1440914373
:103A30000C43C4720099012008710098FEF7A0F9A8
:103A400011B030BD0620FBE733B59FB001221FA99E
:103A500002A8FFF745F8002810D102980C901CA886
:103A600008906048099002A81F99FEF7B0FF00284F
:103A700004D10898C07A800602D5062021B030BD56
:103A80000798E8B300F10B01152216A800F0EEFA32
:103A9000282202A90CA800F0E9FA20A8FEF7D6FF18
:103AA00000283CDB0CA82099FEF791FF48B30428BE
:103AB000E4D10CA8FEF7FEFC0028DFD1119C1322F4
:103AC0000DF15A0104F10D0000F0D0FA9DF85800F4
:103AD000012540F02000E07202980571E07AC006EE
:103AE00029D50E990498884225D02146029800F0E5
:103AF000DCFA01460298FEF79BF9010013D001E0C1
:103B00000BE00EE00298FEF722F9029A54320028E8
:103B1000B4D150782E2808D00DE00420AEE70B2059
:103B2000ACE70820AAE70220A8E710460E9900F0AB
:103B3000C5FA0298057102A8FEF76FFD00289DD115
:103B40000298FEF71DF999E713B58EB00C460122D5
:103B50000EA96846FEF7C4FF00281FD10AA80690E8
:103B60002048079068460E99FEF731FF002815D1CE
:103B70000698C07A800613D4059888B1A17981751A
:103B8000E188090AC17521790176A188090A41767F
:103B90000099012008710098FEF7F2F810B010BDEE
:103BA0000620FBE7F7B58AB017460D4600220AA9A2
:103BB0006846FEF795FF040039D115B3002631465B
:103BC00068460296FEF796FA040030D10121684655
:103BD000FEF7F4FB04000ED10B222846059900F0F5
:103BE00045FA01E0F00800200B202E5418B1401EC9
:103BF000295C2029F9D0042C01D014B117E02E70D3
:103C00000024A7B10098016AFEF7A1F804000ED1C4
:103C10000098007803280DD0272000F13401009A85
:103C200035301044515C006841EA002038600DB026
:103C30002046F0BD4320F0E72DE9F1438EB001228C
:103C40000EA96846FEF74CFF00287FD181468DF80B
:103C500028904D460E9800E06D1C415D0029FBD177
:103C600000E06D1E9DB3411911F8011C2029F8D008
:103C7000002427460DF128080E980121C05D7F1C05
:103C800000F082FA00F09AFA002100F07DFA0600B6
:103C90005BD00146F9A000F000FAE0BBFF2E01D98D
:103CA0000A2000E00B20A0424FD9FF2E03D9310A91
:103CB00008F80410641C404608F80460641CAF4215
:103CC000DAD320210B2C03D20155641CFAE703E060
:103CD0009DF82800E52838D000216846CDF80890E6
:103CE000FEF708FA002831D101216846FEF766FB8D
:103CF000012470B3042829D19DF828100020002940
:103D000024D001216846FEF7A5FA00281ED1202202
:103D10000021059801E018E018E000F0B7F90B2247
:103D20000AA9059800F0A2F905990820C872FDF7C4
:103D3000E0FF05998875059A010AD175059A010C6D
:103D4000000E11760599487610E006200FB0BDE808
:103D5000F083FFE79DF8280028B10B220AA90598F7
:103D600000F084F9E3E70599E520087000980471F4
:103D70000098FEF705F8E9E72DE9FC41002590469B
:103D8000074604464E1E11E001AB0122694640463B
:103D9000FFF7A2F8019801280AD19DF800000D282C
:103DA00004D06D1C04F8010B0A2801D0B542EBDBEE
:103DB0000020207015B13846BDE8FC810020FBE7EB
:103DC000F8B50E4604460A2902D10D21FFF7F8FF87
:103DD0006568002D16DB60196D1C06733D2D0DDB2B
:103DE0006B462A4604F10C012068FFF712F900988F
:103DF000A84201D1002501E04FF0FF356560A068C1
:103E0000401CA060F8BD00B595B00291002103915F
:103E10000491014602A8FFF7D3FF039800280DDBA9
:103E2000024601AB05A90298FFF7F3F830B90199F2
:103E30000398884202D1049815B000BD4FF0FF30BE
:103E4000FAE710B596B004460020CDE902100490C0
:103E500003E002A8641CFFF7B3FF21780029F8D122
:103E6000039800280DDB024601AB05A90298FFF775
:103E7000D0F830B901990398884202D1049816B05D
:103E800010BD4FF0FF30FAE70FB42DE9F0479AB0BC
:103E900024AE0290002003900DF154090490239861
:103EA00010F8011B2390002973D0252903D002A804
:103EB000FFF786FFF3E7002510F8011B2F4623903C
:103EC000302902D02D2902D00FE0012500E0022583
:103ED00010F8011B239008E007EB870001EB400777
:103EE0002398303F10F8011B2390A1F130000928DE
:103EF000F2D96C2901D04C2905D1239845F004054D
:103F000010F8011B2390002943D0A1F161000A465B
:103F1000192801D8203AD2B24F2A40D006DC422AD2
:103F20003BD0432A36D0442AC1D13AE0532A08D0A4
:103F3000552A36D0582ABAD1102301CE442A32D07D
:103F400036E056F8048B002400E0641C18F80400E6
:103F50000028FAD1A80704D50DE0202102A8FFF718
:103F60002FFF2046641CB842F7D304E008F1010893
:103F700002A8FFF725FF98F800100029F6D103E00A
:103F8000202102A8FFF71CFF2046641CB84286D2FD
:103F9000F6E754E016F8041B89E70223CDE708236F
:103FA000CBE70A23C9E7002802DA404245F00805BA
:103FB0000024CC46B0FBF3F203FB1202B0FBF3F09B
:103FC000D2B2092A05D9782915D04FF00708424402
:103FD000D2B230320CF80420641C08B1102CE9D3A2
:103FE000280703D52D2009F80400641CA046E80723
:103FF00004D0302003E04FF02708E8E72020824675
:1040000003E0514602A8FFF7DBFEA80704D44146AF
:1040100008F10108B942F4D34D46641E02A8295D97
:10402000FFF7CEFE002CF8D103E0514602A8FFF7BF
:10403000C7FE414608F10108B942A8D2F5E7039846
:10404000002810DB024601AB05A90298FEF7E1FF4C
:1040500048B901990398884205D104981AB0BDE87F
:10406000F0075DF814FB4FF0FF30F7E703E011F8BD
:10407000013B00F8013B521EF9D27047222A2B2C3B
:104080002E3A3B3C3D3E3F5B5D7C7F00C9B201E088
:1040900000F8011B521EFBD2EFE700E0401C027843
:1040A0000AB18A42FAD1D0B2E7E70246488B1278C9
:1040B000032AE2D1898A40EA0140DEE781760A0AD2
:1040C000C2760A0C0275090E4175D6E77CB5164614
:1040D0001C4605460B22FFF7C9FF052C11D9284ABB
:1040E0000CE00021B61C2346044663F35F0440083D
:1040F000E30300D55440491C1029F4D3308800282C
:10410000EFD107216B4604F00F003030392800D979
:10411000C01D5854491E2409F5D17E205854002250
:1041200000E0521C8A4202D2A85C2028F9D108295A
:1041300002D2585C491C00E02020A854521C082AD6
:10414000F5D37CBD014600200B22430803EBC010D1
:1041500011F8013B521E1844C0B2F6D18DE7016838
:104160004A1C02600878A0F16101192901D82038A1
:1041700080B2802881D30349084410F8800C7CE782
:104180002110010090730008802804D3124A51B115
:10419000FF2801D90020704702EB4000A0F58050B5
:1041A000B0F8000F704732F81130834203D0491C39
:1041B00089B28029F7D38031C8B270470021074BFC
:1041C00000E0491C33F81120002A04D08242F8D1C3
:1041D000034830F8110070471E7400081E7500086F
:1041E000FE76000810B5494800F0DEFC484918B1D9
:1041F00048480078012805D0087840F00100087090
:10420000087810BD087820F00100F8E740480078F1
:1042100070472DE9F04116000C46054606D03C4893
:104220000078C00704D00320BDE8F0810420FBE73C
:10423000364800F0B9FCC0B136480078012814D1E6
:104240007602334622462946304802F02AFC0746C9
:1042500031492E4802F081F82C4800F0A5FC10B13D
:10426000032FEED00FB10120DEE70020DCE72DE9BF
:10427000F04116000C46054605D025480078C007D9
:1042800003D00320D0E70420CEE7224F387804285B
:1042900007D01E4800F088FCD0B13878012802D041
:1042A00016E00220C0E77602334622462946174828
:1042B00002F0AEFB07461849144802F04EF81348C6
:1042C00000F072FC10B1032FEED00FB10120ABE76C
:1042D0000020A9E70E4B00221B78DB0701D003204A
:1042E000704740B1012808D04FF40073022808D06D
:1042F000032808D004221046704708480068086068
:10430000F9E70B80F7E70B60F5E70000FC01002000
:10431000A800002085000020A80700203C0D0020F8
:1043200070477CB501210846FCF70BF94FF4D050DB
:10433000032400908DF8054002208DF80400002031
:104340008DF80600404D8DF8070069462846FCF7B9
:104350003BFA0A2209212846FCF7AAFA0A220B2175
:104360002846FCF7A5FA0A220C212846FCF7A0FAF9
:1043700001218DF8061028158DF8071000908DF892
:10438000054069462846FCF71FFA0A2211462846CE
:10439000FCF78EFA01218803FCF7FBF8012180204D
:1043A000FCF7D9F87CBD08B54FF4C060FBF708FFF7
:1043B00043208DF8000001208DF801008DF80200E7
:1043C0008DF803006846FBF700FF08BD1F48002971
:1043D0004FF0010101D0FCF75EBAFCF75ABA08B5FC
:1043E0000021C0EB0010C00000910721B0FBF1F1EB
:1043F0000098401C00908842FAD908BD4FF47A71A9
:104400004843ECE71CB501210420FCF79AF802218F
:1044100001208DF8051000908DF8040000208DF823
:1044200006000A4C8DF8070069462046FCF7CCF9D7
:1044300001212046FCF72DFAC820FFF7DFFF1CBD45
:10444000034801F0B4BA0000000002400008024036
:10445000FC010020F8B50026044637460096FE4DC4
:104460000320FFF7BCFFE068006900907F1CAF42AB
:1044700001D90020F8BD00980028F1DA0098002149
:1044800040F0010000900098E2681061E068026965
:104490000092491CA94202D8009AD207F7D1032002
:1044A000FFF79DFF3046F8BD30B505460020EC789B
:1044B000002C0CD105EB8202DB1C9B08D2F8D0202B
:1044C00003E051F8045B1560641C9C42F9D330BDD5
:1044D00010B504460023D21C9008D4F8D02003E085
:1044E000146841F8044B5B1C8342F9D3084610BDA5
:1044F00070B500220123C270402683701546144611
:104500008680012901D061B114E0C37208210170D5
:1045100004214FF0A04241709115C1800221017227
:1045200008E0C4720C21017006214170CB4A4FF49F
:10453000A061C18002F50061C0E9032100210AE009
:1045400002EB411303F5106600EB810403F53063C1
:10455000A661491C636543788B42F1D802F58061FE
:1045600041614031C0F8CC10002108E002EB41135A
:1045700000EB810403F5A063491CC4F89030037874
:104580008B42F3D8002108E002EB013300EB8104F9
:1045900003F58053491CC4F8D03003788B42F3D81C
:1045A00002F56062C0F80C21284670BD70B5044663
:1045B000017A0025C068012915D0C16841F0400189
:1045C000C1602046FFF746FF617A4FF4341009B10D
:1045D0004FF47410E16888631420FFF70FFFE07850
:1045E000012819D020E0816B627A21F480310AB170
:1045F00041F480118163E068C16821F0401121F429
:104600002021C1602046FFF725FFE07801280BD16B
:10461000E1682A208860E2E7E068816821F01E01F5
:104620000A3141F020018160284670BDC068002237
:10463000816841F00101816010467047C068002226
:10464000816821F0010181601046704738B500246F
:10465000034622460094009840F020000090009805
:1046600061F38A1000900098D96808617A48D96887
:104670000B690093521C824202D8009B9B06F7D420
:104680000320FFF7ACFE204638BD38B500240246B3
:1046900021460094009840F0100000900098D368E4
:1046A00018616D48D26813690093491C814202D891
:1046B000009BDB06F7D40320FFF791FE204638BDB0
:1046C00010B5C3680024D868012920F0C04201D089
:1046D00019B104E042F0005201E042F08042DA6099
:1046E0003220FFF78BFE204610BDC068406900F005
:1046F00001007047C068406910F0010F01D0002030
:10470000704701207047C068406910F0010000D078
:1047100001207047C0684169806908407047C068DF
:104720004068704710B5C368002211469A61C4689A
:10473000531E6361C4686360C4686FF08043636143
:10474000C468474BA361C37803B91021C06841F026
:104750000C5141F00801836941F400118B430B4374
:104760008361104610BDD0F8CC00006820F02E0008
:10477000704770B50C460546FFF728FE2846FFF740
:10478000F2FFC10408D4012C04D1D5F8CC1040F4B8
:1047900080500860C10405D524B9D5F8CC1020F4A8
:1047A00080500860BDE87040C820FFF727BE70B594
:1047B0000546FFF7D8FF40F4807455F8CC0F04602D
:1047C0000A20FFF71BFE296824F48070086014207B
:1047D000FFF714FE012070BD4069026861F3010219
:1047E000026070472DE9F041002704463D463E46F1
:1047F000FFF708FED4F80C010660207A01280FD0DC
:1048000001212046FFF7E8FF2046FFF7D0FF60694F
:10481000016821F004010160E07A012802D015E06E
:104820000021EEE7E06880214162304661F30F002D
:10483000E268602161F31F409062E022304662F33B
:104840000F0061F31F40E168C1F80001102120460C
:10485000FFF7FCFE204605E0400D03000000044089
:1048600000080080FFF711FF4FF0FF3107E004EB75
:10487000850050F8902F91600068C6606D1C20780C
:10488000A842F4D801212046FFF773FF2046FFF726
:1048900049FF3846BDE8F0814069806840F3000078
:1048A000401C7047406940697047F0B500EB8106D5
:1048B0000027D6F890403D467B1E2A46A360C37869
:1048C000012B00D1042200EB411393F8B14334B122
:1048D000012C1FD0022C02D0032C27D10EE042F075
:1048E000890293F8AE4342F4826284B993F8B043EC
:1048F00042F04002D4B142F0200217E093F8AEC378
:1049000042F0990242F4C062BCF1000F0ED042F4B2
:1049100080720BE093F8AEC342F0010242F40872D9
:10492000BCF1000F02D042F08002F0E7D6F89040D0
:10493000E26001228A4041698C6914438C61C0683D
:10494000816941F00071816193F8AC0360F39C557B
:1049500093F8AD0360F3CE2593F8AE0360F3CF3543
:1049600093F8AF0302280CD025F4003093F8B1136C
:10497000B3F8B22361F3934062F30A00032903D032
:1049800004E045F40030F1E740F00050D6F8901014
:1049900008603846F0BDF0B500EB41140026D4F8AD
:1049A000BC3305464FF4807C37466BB1B4F8B22374
:1049B0009818401EB0FBF2F080B2604505D9120293
:1049C0006046C4F8BC2300E0012094F8AE23AAB1ED
:1049D000B4F8B2234243C4F8BC2362F3120760F375
:1049E000DC4794F8B40305EB810360F35E77D3F8FA
:1049F00090000761E878012803D007E0D4F8BC23D1
:104A0000EBE7D3F89020D4F8B803506153F8900F37
:104A100002682846FFF740FF60F35D7222F0804095
:104A20001A6840F000401060E87890BB94F8AE033C
:104A300078BBD4F8BC2362B394F8B10330B1012839
:104A400010D0022802D0032819D10BE0E868C36A0D
:104A5000D21CC2F38F029BB2934210D2826942F001
:104A600020020BE068690069D21CC2F38F0280B299
:104A7000904204D2E868826942F080628261B4F8B0
:104A8000BC030A4683B2D4F8B80301462846FFF7B0
:104A90000BFD3046F0BD10B500EB81010023D1F8CD
:104AA0009020116841F0404111F4402F09D0C1F32A
:104AB0008144022C05D04069006910F47F0F03D0B7
:104AC00004E0C068C06AF8E721F0004111601846B0
:104AD00010BD10B500EB8100002350F8901F4FF07F
:104AE0000042012464F3DC420A610068016821F09D
:104AF000804141F000410160184610BD10B50446E8
:104B00000020616988616169401E486100210AE0F6
:104B100004EB8100D0F89000026822F0802242F07D
:104B200080420260491C20788842F1D82046FFF775
:104B3000ACFD2046BDE81040102187E510B50022ED
:104B400004461346C0F8102304EB8200C0F8143367
:104B5000C0F85033A01880F88C33521CD2B20F2A00
:104B6000F2D30820A4F8B2032046FFF7C1FC204688
:104B7000FFF764FD2046FFF719FD01212046FFF7EE
:104B80009FFD2046FFF72EFE2046FFF74FFD002039
:104B900010BDD0F8CC000068C0F34140704710B59C
:104BA000FFF705FE002010BDD0F8100370474069E4
:104BB000806880B27047084490F89B03704700EB10
:104BC0008100D0F850037047084490F88C03704778
:104BD000FFF76BBE0022431883F89B2300EB4113C1
:104BE000C3F8C023FFF7D7BE0CB50146D1F890003B
:104BF00000680090009820F0004000F10040009014
:104C0000009820F0804000F180400090009AD1F898
:104C10009000026000200190019820F4001000F53F
:104C2000001001900198CA68506101200CBD38B590
:104C3000044600200090FE480068816820468847AE
:104C4000009820F0005000F1005000900098E168BA
:104C50004861012038BDFEB504460026002500202D
:104C6000009002900190D4F8CC0000680290D4F833
:104C7000CC0000680190019820F004000190019898
:104C800020F002000190019820F0080001900198A6
:104C900020F0200001900298C0F3400058B1019824
:104CA00020F00200801C0190E14800684168204625
:104CB000884745F001050298C0F3C000002842D0A3
:104CC000019820F00800083001900298C0F380009D
:104CD000002838D0D64800684168204688470298A6
:104CE000C0F34140022804D00298C0F3414001289B
:104CF00028D16069006800900298C0F34140022802
:104D000011D141F2707160694160009800F00300B8
:104D1000022818D0207A022803D102212046FFF76A
:104D20005BFD01260FE04BF6803160694160009821
:104D300000F00300012806D001212046FFF74CFDBA
:104D4000012600E001260298C0F3401030B101981E
:104D500020F020002030019045F0010516B12046DA
:104D6000FFF725FD0199D4F8CC0001602846FEBD6F
:104D70007FB505460C4605F1900050F82460B068F8
:104D80000390F0680290DDE902100840039005F1FD
:104D9000900050F82400006801900398C0F3800050
:104DA000D0B100200090009820F00400001D009079
:104DB0000098B06005F1900050F82400C0680090A1
:104DC000009820F00200801C009005F1900050F83F
:104DD00024000099C160B4E10398C0F3401048B1C9
:104DE00000200090009820F02000203000900098D3
:104DF000B060A6E10398C0F34020F8B105F190003F
:104E000050F82400C0680090009820F00200801C38
:104E1000009005F1900050F824000099C160E1B2C3
:104E20002846FFF738FE00200090009820F400701C
:104E300000F5007000900098B06082E1039800F0E7
:104E4000010038B3002105F5457040F8241005F144
:104E5000900050F82400C0680090009820F00200F4
:104E6000801C009005F1900050F824000099C1606A
:104E7000E1B22846FFF70FFE00200090009820F0D6
:104E80000100401C00900098B060012105F563709E
:104E9000015556E10398C0F3C00010B30020009004
:104EA000009820F00800083000900098B06005F1EC
:104EB000900050F82400C0680090009820F0020094
:104EC000801C009005F1900050F824000099C1600A
:104ED000E1B22846FFF7DFFD052105F563700155B6
:104EE0002FE10398C0F3001038B3002105F5457099
:104EF00040F8241005F1900050F82400C06800909C
:104F0000009820F00200801C009005F1900050F8FD
:104F100024000099C160E1B22846FFF7BCFD0020E3
:104F20000090009820F01000103000900098B060C1
:104F3000032105F56370015503E10398C0F3C01028
:104F400040B305F1900050F82400C068009000982C
:104F500020F00200801C009005F1900050F8240021
:104F60000099C160E1B22846FFF795FD05F545704F
:104F700050F82410491C40F82410062178300155BF
:104F800000200090009820F0800080300090009871
:104F9000B060D6E00398C0F3801038B3002105F567
:104FA000457040F8241005F1900050F82400C068C6
:104FB0000090009820F00200801C009005F1900005
:104FC00050F824000099C160E1B22846FFF763FD64
:104FD00000200090009820F04000403000900098A1
:104FE000B060042105F563700155AAE00398C0F391
:104FF000802078B305F1900050F82400C06800903C
:10500000009820F00200801C009005F1900050F8FC
:1050100024000099C160E1B22846FFF73CFD002062
:105020000090009820F0100010300090009801E0EF
:10503000B8000020B060082105F56370015500201C
:105040000090009820F4806000F580600090009847
:10505000B06076E0FFE70398C0F34000002870D00E
:1050600005F1900050F82400C0680090009820F0EE
:105070000200009005F1900050F824000099C160F2
:1050800005F56370005D012815D1012105F29B3003
:1050900001550198C0F38140022848D105F56B7095
:1050A00000EB4410407E80F0010105F56B7000EBD1
:1050B000441041763BE005F56370005D032804D1A0
:1050C000022105F29B30015531E005F56370005D6A
:1050D00004280FD105F56B7000EB4410007901280E
:1050E00003D1E1B22846FFF7F4FC022105F29B3020
:1050F00001551CE005F56370005D052804D104210D
:1051000005F29B30015512E005F56370005D06283D
:105110000DD105F5457050F82400032807D103216F
:1051200005F29B3001550021873840F824100020FB
:105130000090009820F00200801C00900098B06061
:1051400000BF012004B070BD70B586B005460C46A6
:1051500005F1900050F82460B0680590F068049064
:10516000DDE904100840059005F1900050F8240096
:1051700000680390002004900598C0F38000D0B12F
:1051800000200190019820F00400001D019001987A
:10519000B06005F1900050F82400C06801900198BB
:1051A00020F00200801C019005F1900050F82400CE
:1051B0000199C16073E00598C0F3401048B1002028
:1051C0000190019820F02000203001900198B060FB
:1051D00065E00598C0F3C00078B305F1900050F881
:1051E0002400C0680190019820F00200801C01900A
:1051F00005F1900050F824000199C160052105F5E2
:105200006370015500200190019820F010001030CB
:1052100001900198B06000200190019820F00800F2
:10522000083001900198B060059820F010000590BA
:10523000E1B22846FFF72FFC31E0FFE70598C0F305
:10524000802060B305F1900050F82400C068019000
:10525000019820F00200801C019005F1900050F8A8
:1052600024000199C160E1B22846FFF714FC002038
:105270000190019820F01000103001900198B0606A
:10528000082105F56370015500200190019820F474
:10529000806000F5806001900198B06000BF0598C3
:1052A000C0F34020F8B105F1900050F82400C06828
:1052B0000190019820F00200801C019005F19000FF
:1052C00050F824000199C160E1B22846FFF7E3FBE2
:1052D00000200190019820F4007000F5007001900A
:1052E0000198B06042E1059800F00100002871D0FB
:1052F000E878012812D105F1900050F824000069E7
:10530000029005F56B7000EB441000690299C1F33F
:105310001201411A05F5547040F82410012105F5D9
:10532000637001550021783840F824100020019066
:10533000019820F00100401C01900198B060039892
:10534000C0F3814020B10398C0F3814002282AD1E4
:1053500005F1900050F82400C0680190019820F0F9
:105360000200801C019005F1900050F82400019982
:10537000C160E1B22846FFF78EFB00200190019842
:1053800020F01000103001900198B06005F56B70AE
:1053900000EB4410007E80F0010105F56B7000EB1E
:1053A00044100176E2E00398C0F38140032899D1CC
:1053B000039820F0005000F10050039005F1900098
:1053C00050F8240003990160012105F29B3001553A
:1053D000CCE0FFE70598C0F34000002851D005F16C
:1053E000900050F82400C0680190019820F002005D
:1053F000019005F1900050F824000199C16005F575
:105400006370005D012804D1012105F29B30015534
:105410002DE005F56370005D052804D1042105F237
:105420009B30015523E005F56370005D062804D02C
:1054300005F56370005D082808D1002105F5457069
:1054400040F8241003218730015510E00398C0F381
:10545000814003280BD105F56B7000EB4410007EF2
:1054600080F0010105F56B7000EB4410017600201F
:105470000190019820F00200801C01900198B0601A
:1054800074E00598C0F3C01040B305F1900050F8E7
:105490002400C0680190019820F00200801C019057
:1054A00005F1900050F824000199C16005F54570A0
:1054B00050F82410491C40F824100621783001557A
:1054C000E1B22846FFF7E7FA00200190019820F0AA
:1054D0008000803001900198B06047E00598C0F3EB
:1054E0000010E8B30398C0F38140032815D105F1FB
:1054F000900050F82400C0680190019820F002004C
:10550000801C019005F1900050F824000199C160C1
:10551000E1B22846FFF7BFFA18E00398C0F38140D4
:1055200020B10398C0F3814002280FD1039820F0E6
:10553000004000F100400390039820F08040039069
:1055400005F1900050F8240003990160032105F54E
:105550006370015500200190019820F0100000E0D8
:1055600004E0103001900198B06000BF012006B047
:1055700070BD7CB50546002400262846FFF792F949
:10558000019000BF1BE0019880B20121A1400840BA
:10559000A0B105F1900050F8240000680090009838
:1055A000C0F3C03028B121462846FFF7CDFD0643A1
:1055B00004E021462846FFF7DBFB0643641C2878FD
:1055C000A042E0D830467CBDFEB504466069006963
:1055D00000900198C0F3C30104F56B7000EB41101B
:1055E0000069C01CC0F38F0674E04FF6FF7100988D
:1055F00001EA80050198C0F3C30104F56B7000EB6C
:1056000041100069A84216D20198C0F3C30104F505
:105610006B7000EB4110008A85B200200290029866
:1056200020F0806000F180600290E068806902995B
:105630008843E16888610198C0F3C30104F56B7089
:1056400000EB41100069C01CC0F38F060198C0F345
:10565000C302C0F3C30304F56B7000EB43102B4689
:10566000C1682046FEF720FF0198C0F3C30104F58E
:105670006B7000EB4110C06841190198C0F3C30280
:1056800004F56B7000EB4210C1600198C0F3C301D8
:1056900004F56B7000EB41100069411B0198C0F3E9
:1056A000C30204F56B7000EB421001610198C0F376
:1056B000C30104F56B7000EB41104069411901987A
:1056C000C0F3C30204F56B7000EB421041616069E6
:1056D00000690090009880B2B0420ADD0198C0F3E2
:1056E000C30104F56B7000EB4110006900287FF4E2
:1056F0007CAF0120FEBD7FB50446E068C06A009023
:105700000198C0F3C30104F56B7000EB4110006910
:10571000C01CC0F38F0673E04FF6FF71009801EADA
:1057200080050198C0F3C30104F56B7000EB4110D4
:105730000069A84215D20198C0F3C30104F56B704B
:1057400000EB4110008A85B200200390039820F0FE
:10575000200020300390E068806903998843E16865
:1057600088610198C0F3C30104F56B7000EB411030
:105770000069C01CC0F38F060198C0F3C302C0F3D8
:10578000C30304F56B7000EB43102B46C168204641
:10579000FEF78AFE0198C0F3C30104F56B7000EBBD
:1057A0004110C06841190198C0F3C30204F56B7041
:1057B00000EB4210C1600198C0F3C30104F56B70A7
:1057C00000EB41100069411B0198C0F3C30204F5CE
:1057D0006B7000EB421001610198C0F3C30104F546
:1057E0006B7000EB4110406941190198C0F3C3028E
:1057F00004F56B7000EB42104161E068C06A0090F4
:10580000009880B2B0420ADD0198C0F3C30104F5EC
:105810006B7000EB4110006900287FF47DAF012020
:1058200004B070BD30B585B00446002000900390F0
:10583000039820F0100010300390E068806903990D
:105840008843E1688861E068006A0490049800F089
:105850000F00009004F190009DF8001050F8210016
:10586000006801900498C0F34340022806D0032842
:1058700078D0052877D0072873D175E00498C0F355
:105880000A10002869DD04F56B709DF8001000EB2C
:105890004110C068002860D00498C0F30A1204F5D3
:1058A0006B709DF8003000EB4310C1682046FEF796
:1058B0000FFE049800F00F0104F56B7000EB41102F
:1058C000C0680499C1F30A110144049800F00F0262
:1058D00004F56B7000EB4210C160049800F00F01FA
:1058E00004F56B7000EB411040690499C1F30A1193
:1058F0000144049800F00F0204F56B7000EB4210B5
:10590000416104F56B709DF8001000EB4110456992
:1059100004F554709DF8001040F8215004F19000F7
:105920009DF8001050F82100006902900298C0F321
:10593000C940002811DD019820F0004000F100402E
:105940000190019820F08040019004F190009DF8B2
:105950000020019950F82200016006E002E002E018
:10596000FFE700BF00BF00BF00BF00BF039820F0EB
:10597000100010300390E068806903990843E168E3
:105980008861012005B030BD38B504460020009084
:1059900031480068016820468847009820F00800D8
:1059A000083000900098E1684861012038BD38B5A2
:1059B00005460024002000902846FEF7A4FE00289B
:1059C00047D02846FEF7A6FE0090009808B90020B0
:1059D00038BD0098C0F3C00018B12846FFF7D4FFC7
:1059E00004430098C0F3001018B12846FFF71AFFCF
:1059F00004430098C0F3401018B12846FFF77BFE1F
:105A000004430098C0F3806018B12846FFF7DCFD1E
:105A100004430098C0F3406018B12846FFF7A9FD81
:105A200004430098C0F3006018B12846FFF713F94B
:105A300004430098C0F3407018B12846FFF7F7F808
:105A400004430098C0F3405018B12846FFF7CCF843
:105A500004432046BCE70000B80000200121C0F844
:105A60001013002070470021C0F81013084670473B
:105A70000020704770B50C46002121706170A17044
:105A800001220546E27022774020A07184F82010A0
:105A900084F821202179284600F015FB61792846F9
:105AA00000F011FB002070BD2DE9F0411D461446A9
:105AB0000F468046069EFEF734FC0020FEF7A2FC4F
:105AC00021464046FFF7D6FFE4E9505639464046A6
:105AD000FFF734F86068006880474046BDE8F04151
